:020000040000fa
:04005c00fc020000a2
:020000040000fa
:0400b400fc0200004a
:020000040000fa
:0400b000fc0200004e
:020000040000fa
:04014000fc020000bd
:020000040000fa
:04007000fc0200008e
:020000040000fa
:04007400fc0200008a
:020000040000fa
:04013400fc020000c9
:020000040000fa
:04015c00fc020000a1
:020000040000fa
:04006000fc0200009e
:020000040000fa
:04008800fc02000076
:020000040000fa
:04001c00fc020000e2
:020000040000fa
:04001000fc020000ee
:020000040000fa
:04002c00fc020000d2
:020000040000fa
:04003c00fc020000c2
:020000040000fa
:0400bc00fc02000042
:020000040000fa
:0400c000fc0200003e
:020000040000fa
:04026000fc0200009c
:020000040000fa
:04002800fc020000d6
:020000040000fa
:04007800fc02000086
:020000040000fa
:04009c00fc02000062
:020000040000fa
:0401b800fc02000045
:020000040000fa
:0401bc00fc02000041
:020000040000fa
:0401c000fc0200003d
:020000040000fa
:0401c400fc02000039
:020000040000fa
:0401c800fc02000035
:020000040000fa
:0401cc00fc02000031
:020000040000fa
:0401d000fc0200002d
:020000040000fa
:0401d400fc02000029
:020000040000fa
:0401d800fc02000025
:020000040000fa
:0401dc00fc02000021
:020000040000fa
:0401e000fc0200001d
:020000040000fa
:0401e400fc02000019
:020000040000fa
:0401e800fc02000015
:020000040000fa
:0401ec00fc02000011
:020000040000fa
:0401f000fc0200000d
:020000040000fa
:0401f400fc02000009
:020000040000fa
:0401f800fc02000005
:020000040000fa
:0401fc00fc02000001
:020000040000fa
:04020000fc020000fc
:020000040000fa
:04020400fc020000f8
:020000040000fa
:04020800fc020000f4
:020000040000fa
:04020c00fc020000f0
:020000040000fa
:04021000fc020000ec
:020000040000fa
:04021400fc020000e8
:020000040000fa
:04021800fc020000e4
:020000040000fa
:04021c00fc020000e0
:020000040000fa
:04022000fc020000dc
:020000040000fa
:04022400fc020000d8
:020000040000fa
:04022800fc020000d4
:020000040000fa
:04022c00fc020000d0
:020000040000fa
:04023000fc020000cc
:020000040000fa
:04023400fc020000c8
:020000040000fa
:04023800fc020000c4
:020000040000fa
:04023c00fc020000c0
:020000040000fa
:04024000fc020000bc
:020000040000fa
:04024400fc020000b8
:020000040000fa
:04024800fc020000b4
:020000040000fa
:04024c00fc020000b0
:020000040000fa
:04025000fc020000ac
:020000040000fa
:04025400fc020000a8
:020000040000fa
:04025800fc020000a4
:020000040000fa
:04025c00fc020000a0
:020000040000fa
:04026800fc02000094
:020000040000fa
:04006400fc0200009a
:020000040000fa
:04007c00fc02000082
:020000040000fa
:04008000fc0200007e
:020000040000fa
:04008400fc0200007a
:020000040000fa
:0400c400fc0200003a
:020000040000fa
:0400c800fc02000036
:020000040000fa
:0400cc00fc02000032
:020000040000fa
:0400d000fc0200002e
:020000040000fa
:0400d400fc0200002a
:020000040000fa
:0400d800fc02000026
:020000040000fa
:0400dc00fc02000022
:020000040000fa
:0400e000fc0200001e
:020000040000fa
:0400e400fc0200001a
:020000040000fa
:0400e800fc02000016
:020000040000fa
:0400f400fc0200000a
:020000040000fa
:0400f800fc02000006
:020000040000fa
:0400fc00fc02000002
:020000040000fa
:04010000fc020000fd
:020000040000fa
:04010400fc020000f9
:020000040000fa
:04010800fc020000f5
:020000040000fa
:04011400fc020000e9
:020000040000fa
:04011800fc020000e5
:020000040000fa
:04011c00fc020000e1
:020000040000fa
:04012000fc020000dd
:020000040000fa
:04012400fc020000d9
:020000040000fa
:04012800fc020000d5
:020000040000fa
:04013800fc020000c5
:020000040000fa
:04013c00fc020000c1
:020000040000fa
:04014400fc020000b9
:020000040000fa
:04014800fc020000b5
:020000040000fa
:04014c00fc020000b1
:020000040000fa
:04015000fc020000ad
:020000040000fa
:04015400fc020000a9
:020000040000fa
:04015800fc020000a5
:020000040000fa
:04016000fc0200009d
:020000040000fa
:04016400fc02000099
:020000040000fa
:04016800fc02000095
:020000040000fa
:04016c00fc02000091
:020000040000fa
:04017000fc0200008d
:020000040000fa
:04017400fc02000089
:020000040000fa
:04017800fc02000085
:020000040000fa
:04017c00fc02000081
:020000040000fa
:04018000fc0200007d
:020000040000fa
:04018400fc02000079
:020000040000fa
:04018800fc02000075
:020000040000fa
:04018c00fc02000071
:020000040000fa
:04019000fc0200006d
:020000040000fa
:04019400fc02000069
:020000040000fa
:04019800fc02000065
:020000040000fa
:04019c00fc02000061
:020000040000fa
:0401ac00fc02000051
:020000040000fa
:0401b000fc0200004d
:020000040000fa
:0401b400fc02000049
:020000040000fa
:04026400fc02000098
:020000040000fa
:04006c00fc02000092
:020000040000fa
:0400f000fc0200000e
:020000040000fa
:04003000fc020000ce
:020000040000fa
:04004000fc020000be
:020000040000fa
:04008c00fc02000072
:020000040000fa
:04009000fc0200006e
:020000040000fa
:04027400fc02000088
:020000040000fa
:04027800fc02000084
:020000040000fa
:04027c00fc02000080
:020000040000fa
:04028000fc0200007c
:020000040000fa
:04026c00fc02000090
:020000040000fa
:04027000fc0200008c
:020000040000fa
:0401a000fc0200005d
:020000040000fa
:0401a400fc02000059
:020000040000fa
:0401a800fc02000055
:020000040000fa
:04010c00fc020000f1
:020000040000fa
:04011000fc020000ed
:020000040000fa
:04002400fc020000da
:020000040000fa
:04006800fc02000096
:020000040000fa
:0400ec00fc02000012
:020000040000fa
:04004c00fc020000b2
:020000040000fa
:04005000fc020000ae
:020000040000fa
:0400a800fc02000056
:020000040000fa
:0400ac00fc02000052
:020000040000fa
:04002000fc020000de
:020000040000fa
:04004800fc020000b6
:020000040000fa
:04009400fc0200006a
:020000040000fa
:04009800fc02000066
:020000040000fa
:04012c00fc020000d1
:020000040000fa
:04005400fc020000aa
:020000040000fa
:04013000fc020000cd
:020000040000fa
:0400a000fc0200005e
:020000040000fa
:0400a400fc0200005a
:020000040000fa
:080000000002040000000000f2
:020000040000fa
:100400002f6224000eff27000e018800000000006c
:10041000000020000000e000020032000001200087
:10042000200288000c00070040df200001002000af
:100430001d000700000020000000e0000200320064
:100440000000020000000000600b0200000000003d
:100450000040da000000fe00200020000000e00064
:100460000200320010002000900188000000060009
:10047000f03fb1000180b10006003500ee03090035
:1004800000000000403fb1000180b100fbff3d00d3
:100490001000b000203fb0000200350000800900cd
:1004a0000000000000000600a10288008000780023
:1004b0000000eb001a003700e280400054a0b400b6
:1004c0009101ba00e280400054a0b4009102ba0049
:1004d000e280400054a0b4000002eb00472bde0095
:1004e000f507b200a6018800602ce10008003a0080
:1004f0000049eb000201e800020039003420ec0062
:1005000002f0a0008301e900f9ff3e00040037007b
:100510006128e100010032000082eb000b000700bf
:1005200011c3ba001101ba000604e00003003a004a
:100530000200e000e0ff3a0000000600f607b2000b
:10054000a602880082007800f5ff370004d0a300df
:10055000e20f49001c003900810278003549ba00d9
:100560000201e800020039003420ec0002f0a00093
:100570008301e9000f0032002549ba000201e800ba
:10058000020039003420ec0002f0a0008301e900f1
:10059000080032000400e0000600320015c9ba006d
:1005a0000201e800020039003420ec0002f0a00053
:1005b0008301e9008180e80054a0b4000300e0005a
:1005c000e2ff3a00000006009102ba0005597800e7
:1005d0008301e900f7ff3200c82ade0005597800e0
:1005e0008301e900f3ff32000400e000f1ff320074
:1005f00011d9ba00eeff37000040da000000fe001b
:100600004f89de00820178009b003700889fbe0082
:100610008a9fbe008c1f7800a7000700ae00330041
:1006200003866c006450e1002e0032006420e1007b
:10063000330032006150e1002f0032006120e10000
:100640003100320085855500eb07b000090020001d
:1006500008042000050037000804440089844c0089
:100660000a0031000603430087834b00000153005a
:1006700081815b00f8ff33000203be000800a00088
:100680000804440089844c00f6ff3900c639dd00b7
:100690008301730001003200130020008904d1009f
:1006a0000884d3000998a300050032000800a700c1
:1006b0000300a0008904d1000884d3008b05e80062
:1006c0008904d1000884d3000001eb000281d2002c
:1006d0009100070001f0a1000cf0a70001f0a000bc
:1006e000860037006420e100880032000801be0067
:1006f0000200be00f7ff37006120e10083003200f6
:100700006000b800f3ff37000000200001f8270068
:10071000f0ff3700889fbe008a9fbe008c1f7800c4
:10072000650007006c00330003866c006450e10034
:10073000240032006420e100270032006150e10013
:10074000220032006120e100210032008b8542004e
:10075000eb07b1000134b800003ab80008044200c9
:1007600089844a00013ab8000030b800888040000f
:1007700009014a0004003300000040008180480065
:10078000020149008b05e900c909dd008301700001
:100790000100320013002000c814de004814dd0000
:1007a0004709de001200b200c808de0008847000ad
:1007b0005900070001f0a1000cf0a70001f0a00013
:1007c0004e0037006120e100500032000801be00f9
:1007d0000200be00f7ff37006150e100fcff3a0065
:1007e0004a0037000001be00710007000470a70036
:1007f00003f0a1006509b100160032000d003500bc
:100800006828e10006003500f0ff2f00f1ff270007
:100810000300e00013003b00010028000000050079
:1008200000004000818048008502e900fcff3a009a
:1008300008003700f88f420002003c008000eb0007
:10084000000005008100d1000080d3008502e8008f
:10085000fcff3a000300e00002003b0060001000d3
:10086000e0801800000006000001eb006500370082
:100870000081eb0063003700881f780003047800d4
:100880000300e00007003d0060001000e080180059
:1008900060011900e081190002003b0001f02d0009
:1008a00003003700c000070008f0a70001f0a00017
:1008b0004f047800000006000004be003c00070062
:1008c0000003be000405be000200be0038000700a1
:1008d000844f7500000006000200be006450e10075
:1008e000050036006420e100020036000968a3001c
:1008f00001003a000800be000160a0004f06780029
:100900004f05be004f04be0000000600f0ff2f00a0
:10091000f1ff2700f9ff37008100200061805500ba
:100920000b003d000b00200061fe2f000100e100e4
:100930001d00340082817100610164008904d100ce
:100940000884d3000000e800faff3a00710020009c
:1009500061006400030070000200600009003200c2
:1009600061044400e0844c000988a50005003200c1
:100970008b05e8006808e10002003a008904d10014
:100980000884d300f20f20000258e10005003d006a
:10099000c75ddd00f907b2008980750008007800a6
:1009a000000006000bf827008b007800000005000f
:1009b000c70ade00f107b200f50fb20008003200ee
:1009c000e1cf4200020032000170a00024000500c7
:1009d000810f70000100320004080500440005008a
:1009e000810f700002003a00140005008502e90042
:1009f0000000400081c04800fcff3b000170a000e7
:100a000024000500889fbe008a9fbe008c9fbe0008
:100a1000820578000004be00e5ff07000800be0064
:100a20006420e1000700390002003a00f1ff2700ce
:100a3000f0ff2f000160a0001202200082988800c1
:100a4000550037006120e10003003a000b00a700c9
:100a500001f823005000370001f0a100020021003e
:100a6000936424007f0007000800be0004003500e6
:100a7000b2fd2000930c24007c0007000004be009f
:100a80000005eb000b00a6004f0dde0001f0a100f9
:100a90000004be0032982f0023ea23001dff070048
:100aa0000001eb0003f023000b00a70003f8230074
:100ab000710007004bff07000000a7000a00a2001a
:100ac000cffe07000b00e000030032000200200010
:100ad00003f023006700070001f0a2000006be003b
:100ae00002002000930424000aff07000801be0052
:100af00061000700809fbe000c00be0022a22a00f9
:100b0000d3a7230003ff07004f01be005a000700d0
:100b10000004be0001f0a1000200200003982300a1
:100b2000500007000800be00190035000001be009b
:100b3000f8fe07000006be00b2c52900e3622300ec
:100b4000f4fe070022222b00f3942b004a0007003a
:100b50000c01be00effe0700e273280083c02300f3
:100b6000450007000c01be00eafe070042aa2a0069
:100b7000a3e22b00400007000c01be00e5fe0700c9
:100b80000801be00e3fe07000801be003a000700ae
:100b90000a00a70001f0a2004f06be004f05be00ec
:100ba0004f04be0000000600889fbe008a9fbe0062
:100bb000008270000402710004827100260032007d
:100bc0000004be000200be006011b8006b092000e6
:100bd000950220000182cf000a0039000541b100d2
:100be0000082cf00070039000541b1000982cf0023
:100bf000040039000541b1000882cf00010039002e
:100c00000541b10005425200120032000a003b00cb
:100c100082817100610164008100d1000080d300f5
:100c20008984d3000884d3008b05e8000442e800df
:100c3000f7ff3a00070037000804440089844c009d
:100c400000004800818048008b05e9000442e9006b
:100c5000f9ff3a0030ff07004f05be004f04be0009
:100c6000000006001400200060003700040020008f
:100c70007900370003f0a200889fbe008a9fbe0063
:100c80008c1f78000cff070013ff33006450e10055
:100c90004f0032006420e1005200320003826c00f9
:100ca00007003b000905d0000306d000820f540066
:100cb0000c065d0002003900020032008901780054
:100cc000030678008582550004003d000003fd0006
:100cd0008103fd008502ea008b854200840f7200cb
:100ce00002003b0060001000e08018006011b800b6
:100cf0000005eb007a28e1000a00390006007800c0
:100d0000c75ddd00f707b200878075002d00370052
:100d1000828171000a017800610560008180d10044
:100d20000080d3008502e900f9ff3b000604400083
:100d30008784480002003b0060041400e0841c002b
:100d40000988a300070032008a8171008281710046
:100d5000610164008904d1000884d3008b05e80098
:100d6000170037000978a30013003a000b00e000d9
:100d7000130034008b05e9000804440089844c000a
:100d80000a4474000978a3000d003a000b00e0004b
:100d9000070034008b05e9000804440089844c00f6
:100da00001003a000b0020000978a300f7ff320091
:100db0000001eb0002003700828171000a01780017
:100dc000d5fe07000cf0a70001f0a000cbfe370015
:100dd0006420e10002003a00838f6c00cbfe3300f8
:100de0000801be000200be00c4fe3700889fbe009e
:100df0008a9fbe00841f7800affe07004f00780076
:100e000011003300f0ff2f00838f6c0006003b00c1
:100e1000040565000a00a7000800370009f0a600d5
:100e20001000200008003700820f5400838f5c0000
:100e3000030039001000200001003e0000002000e7
:100e400009f0a7000000ea004f05be004f04be00f5
:100e50000000e00000000600889fbe008a9fbe00e0
:100e60008c1f78004f26dd0093fe07009afe3300aa
:100e70006120e100430032006250e10041003e0089
:100e80003e0039006420e1003c003200058255003c
:100e90000f003b000402e80038003a00800f5300c6
:100ea000818f5b00350034000800be0003f0a10014
:100eb00001f0a60003f0a0000cf0a7006eff0700f1
:100ec0008efe37000603430087834b000c46460026
:100ed0000005530081855b00020033000a03be0059
:100ee0000c00a0000402e900f6ff3b008505780035
:100ef0000602430087824b0004003a006000b800fd
:100f000009f0a70001f0a0007cfe370000025200ab
:100f100081825a000704e000040033000603430006
:100f200087834b008b05e900faff3700090578003d
:100f30000604be000203be006011b80076fe070082
:100f4000e00f5200e08f5a000700350002003c001d
:100f50000c08a300040032000601be0003f0a0004c
:100f60000cf0a70044ff07000a85680001f0a1000b
:100f70000af0a70001f0a00060fe37000800be00e4
:100f80005efe3700100220000cf0a600809888005a
:100f90005efe37003200f80001c0fe008102d00082
:100fa0008502e90001187800021878000518410050
:100fb0000318780004187800051842000408780027
:100fc0003200f90000000600889fbe008a9fbe0024
:100fd0008c9fbe008e1f78004400f800080f200090
:100fe000280288003200f8004600f8004800f800a7
:100ff0004a00f8004c00f8004e00f8008a0a2c0065
:101000003a028800230490005802880013049000dc
:1010100048028800530590007a028800430590003a
:101020006a028800811f78000f077800330590005e
:1010300007f02f000a38e1002b0032000ad0fe0032
:10104000040180000d318200050029008304900016
:101050008904d0000f8544000800310005055500c3
:10106000060031008d844400040031008f84440068
:10107000020031008486540012003900630590009c
:1010800003029000630252000000e90000800800a3
:10109000090000003200f80001c0fe00320d7800a7
:1010a0003200f9004618c300048009004618c40045
:1010b0004218c4001201c4003100cd00ea019800ba
:1010c00019003700830490008f0378008906e90037
:1010d0000d800900b81f7800070478008f07e90029
:1010e0005f0288004802880001c0fe00630590008e
:1010f00003029000630252000000e9000080080033
:1011000007000000320d7800000000004618c30000
:10111000048009004618c4004218c4001201c4002b
:101120003100cd00ea0198008e0778004f0078006a
:101130004e00f9004c00f9004a00f9004800f9009f
:101140004600f9003200f9004400f9004f0778002a
:101150004f06be004f05be004f04be000000060053
:020000040000fa
:02000004000af0
:04afe000dfff00008f
:020000040000fa
:02000004000af0
:04afe8007fff0000e7
:020000040000fa
:02000004000af0
:04afec005dff000005
:020000040000fa
:02000004000af0
:04aff00078ff0000e6
:020000040000fa
:02000004000af0
:04aff400ffff00005b
:020000040000fa
:04005800ca0c0000ce
:020000040000fa
:04003400d20c0000ea
:020000040000fa
:04004400da0c0000d2
:020000040000fa
:04003800e20c0000d6
:020000040000fa
:0400b800000d000037
:020000040000fa
:04000800da0d00000d
:020000040000fa
:04000c00e00d000003
:020000040000fa
:04001400e80d0000f3
:020000040000fa
:04001800ee0d0000e9
:020000040000fa
:101160000000fa00ca030700e4652c0003f02f001a
:1011700002002100910e2000201f240085ff07009f
:10118000c4482c0003f02f0002002100910e200023
:10119000002024007fff0700dc32ef000080fa000f
:1011a000000006000600fa001007980021079800ca
:1011b0000000eb00000f78004c003700eb03070045
:1011c000f09688003e04070000978800f0968000a3
:1011d0006101b9001e007800000040009e009000f0
:1011e0000080400010007800cf80de00809ab900b7
:1011f000828bb90086027800050242000010b80018
:1012000001024200840078004b09dd004500de0049
:1012100000007100c588de0000007800a0968800fc
:10122000009780006101b9001e00780000004000b6
:101230009e0090000080400010007800cf80de000b
:10124000809ab900828bb9008602780005024200bc
:101250000010b80001024200840078004b09dd0054
:101260004500de0000007100c588de000000780047
:10127000b0968800e0968000000040008000780072
:101280002031210000804000231f2400422d210036
:1012900080007800100020004bff0700e0968000df
:1012a0000000400080007800202b220000804000d9
:1012b00003202400622d210080007800100020000f
:1012c00041ff0700e09680000000e800e0968800fb
:1012d000e1968000007d2000808f500002003a00df
:1012e00008000700dc32ef001e0fe8002e0090001f
:1012f0009e007800808f5000b0ff35000080fa001b
:10130000000006000400fa00889fbe008a1f7800d3
:101310000000eb00000f7800690037001e00780025
:1013200080004000202b2200008040001000780048
:101330006101b900c0968000cf80de00809ab900bc
:10134000828bb90086027800050242000011b800c5
:1013500003024200840178001e00780080004000f3
:101360002031210000804000100078006102b900a7
:10137000d0968000cf80de0080abb900848cb900ad
:1013800088037800070343000020b80001034300ee
:1013900086007800000051008180590098fc070009
:1013a0000004be001e00780080004000202b2200b8
:1013b00000804000100078006101b9001e00780034
:1013c00080004000202b22000080400010007800a8
:1013d000cf80de00809ab900828db9008a02780041
:1013e000050242000011b8000302420084017800a7
:1013f0001e00780080004000203121000080400065
:10140000100078006102b9001e00780080004000e2
:10141000203121000080400010007800cf80de00e5
:1014200080abb900848db9008a03780007034300bc
:101430000020b8000103430086007800020040004d
:10144000838048006efc07000001be000800be005b
:101450006efc070060978800719788006097800095
:101460007197800002e02f00f36f2400a9fc0700b1
:10147000dcfc0700800078001e00780000014000be
:101480002025230000004100010878001e0078009c
:1014900080004000203121000080400010007800d2
:1014a000c09688001e00780080004000202b22009b
:1014b0000080400010007800d09688001e0fe800e1
:1014c000f07c20009e007800808f500093ff340055
:1014d0000000eb00000f7800710037001e0078005c
:1014e000800040002025230000804000100078008c
:1014f0000000e0000500340010c0b300e9f2b700be
:10150000ead2bf000040e800eaf2b700e9d2bf002b
:101510000004e00003003200ebd2bf000040e8000e
:10152000ebf2b700ebd2bf00e44f50005a003a0094
:10153000e3d2bf00e14f500050003a00e5d2bf00b7
:10154000e74f50000f003e00ead2bf00e24f5000cc
:1015500008003e00e5d2bf000080fb001100200023
:101560000008dd0080407800e2d2bf0000c07000bb
:10157000e2f2b700e5d2bf000040e800e5f2b700b4
:1015800043003700e5d2bf00e84f50000b003a009f
:10159000ead2bf00e24f500002003600e772ef00cf
:1015a0000200370010c0b300e7f2b700e5d2bf0079
:1015b0000040e800e5f2b70035003700e5d2bf0093
:1015c000e94f500032003a00ead2bf00e24f50002b
:1015d00002003600e472ef000200370010c0b300d2
:1015e000e4f2b700e4d2bf00e14f50001e003a0021
:1015f000e872ef000040eb00204798000f00370032
:10160000e2d2bf008000fb002e4090000080fb0073
:101610000088de0061006000004078000004e00007
:1016200003003200e8d2bf000040e800e8f2b70053
:101630002e4090000040e800204798002e40900087
:10164000e74f5000eeff3600e8d2bf00e1406000f7
:10165000e7d2bf0080cf500003003a00e2d2bf00c3
:101660000000fb0020118800e572ef00e372ef003c
:10167000e272ef00e972ef0005003700ead2bf0026
:10168000e24f50000200360010c0b300e3f2b70092
:10169000ea72ef00eb72ef009e007800798f400055
:1016a000f07c20009e007800808f50008bff34007b
:1016b0004f0578004f04be000080fa0000000600cd
:1016c0000000fa001100070052030700a4fe070003
:1016d00001003700000000000cd3bf00e14f5000b4
:1016e000fcff3a000c73ef002361240082c12c0040
:1016f00001832c00401f200033fe0700411f200003
:1017000000832c00a7fe0700f3ff37000000fa005b
:10171000203a80000060a1000070a100203a8800fb
:10172000a0082000303a8800213a800000fe2f00f7
:1017300000806000203a88004567a9003200200040
:1017400080072000a1092000337420008049780020
:101750008149780082497800103a800000017800c1
:101760000200a00060042000710520002374200006
:1017700080497800814978008249780000000000a3
:10178000113a8000000027008080600000002300e4
:10179000808f5000faff3a0000000000113a8000ec
:1017a00000022000008060000000e000fbff32002b
:1017b0000e2eef001e2eef00102eef00002eef0079
:1017c000c3e8a8000029ef000048800000a0a000a6
:1017d00000b0a00000c0a0000048880000488000c1
:1017e0000000a1000010a0000020a0000048880018
:1017f00010488000f001b30010488800e01020007d
:101800003048880070212000204888002134800062
:1018100000fc2f00008060000040a0002034880001
:101820001021ef0000652400600888008008800017
:101830000040a0000050a1008008880010428000f5
:1018400000c0a00000d0a00000e0a100104288006d
:1018500000e8a90020e8a80021348000f00f2c0047
:10186000808060000010200001007000203488009b
:1018700010aea90014aea800500220002036880047
:10188000601c2000401188002222ef000000280088
:10189000001188002342a8000188a9002188a8001f
:1018a0000e0ea800000ea800404e2100001988006e
:1018b0002043a8002083a900001980000050a10047
:1018c0000060a0000070a100001988002223ef0032
:1018d00025e3a90021198000f00f2e008080600010
:1018e00000202000010070002019880070ccb30097
:1018f00024e3b70000102000901988002e23ef0089
:101900003023ef00302bef00805980000040a10011
:101910000050a10080598800805980000000a1007b
:101920000010a0008059880031aba90031cba9007c
:1019300000302000e0598800301f2000f059880056
:10194000d00020009059880020fa2b00a059880070
:10195000362bef00a0bb2b00c05988003a2bef00bc
:101960000488a9002488a80031eba800b0da200080
:1019700070088800000028009008880021e3a80073
:101980008057200001002000b9fa07000080fa000b
:10199000000006000000fa000188a9000080fa009b
:1019a000004006000000fa000068a9000080fa006c
:1019b000004006000000fa0000e8a9000080fa00dc
:1019c000004006003200f8003400f800881f78005c
:1019d00018002000a8018800180020009801880045
:1019e000000000004f0478000000fa000088a90001
:1019f0000080fa003400f9003200f90000400600cf
:101a0000809fbe00829fbe00849fbe00861f78001c
:101a10003200f8003400f80010002000a001880017
:101a20001000200090018800000000000000fa0073
:101a3000d4302100144278000404e0002a003a0067
:101a400010c0b3000df3b7000e33ef0021003700d4
:101a50007498800070988000000040006100b80019
:101a600022fa2b00130020008002d0000203d000d5
:101a7000068042004220a800838048004200a9005e
:101a80004220ae004200a8000080d30095018000f3
:101a90000103780096018800000000000000780033
:101aa00090007800950188000000000000802f0061
:101ab00000804000800078000402420080c12c00b9
:101ac0000000420001087800709880000000e800e3
:101ad0007098880071988000301f2000808f50001f
:101ae000dbff3400280037000e33ef002100370001
:101af0007498800072988000020141006111b80062
:101b0000a0bb2b00110020008202d0000003d000f7
:101b1000068142004220a800818149004200a900bc
:101b20004220ae004200a8000281d300950180004f
:101b3000030378009601880000000000020178008d
:101b400092017800950188000000000002802f00bb
:101b500002814100820178000402420082c12c000f
:101b60000201420003097800729880000201e80037
:101b70007298880073988000321f2000828f510075
:101b8000dbff34000d73ef0010c0b3000cf3b7009f
:101b90000488a9000080fa003400f9003200f9003e
:101ba0004f0378004f02be004f01be004f00be0041
:101bb000004006000000fa00c028a900ffff37001f
:101bc0000000fa00c068a9000080fa00004006008a
:101bd0000000fa00c048a900ffff37000000fa002b
:081be000c088a900ffff3700d7
:020000040000fa
:101be800124600000e000000800000008ac30000ba
:101bf8000201000080000000d21100000201000074
:101c08008200000040ff0000004f00000000a50017
:101c1800ff000000650000000094ff0000006f0056
:101c28000000000094ff0000006300000000ae0008
:101c3800ff0000003900000000eaff000000ea0091
:101c4800ff0000004d0000000072ff000000da00f5
:101c580000000000d0fe0000009001000000090014
:101c6800fe000000670200000025fd00000054008f
:101c78000300000031fc00000049040000003f00a0
:101c8800fb000000340500000060fa0000000300bb
:101c980006000000a5f9000000a5060000001f00ce
:101ca800f90000000c07000000d9f800000030001f
:101cb80007000000d9f80000000c070000001f0012
:101cc800f9000000a506000000a5f90000000300c7
:101cd8000600000060fa00000034050000003f0024
:101ce800fb000000490400000031fc000000540023
:101cf8000300000025fd0000006702000000090045
:101d0800fe0000009001000000d0fe000000da0094
:101d18000000000072ff0000004d00000000ea0013
:101d2800ff000000eaff0000003900000000ae00dc
:101d3800ff000000630000000094ff0000006f0037
:101d48000000000094ff0000006500000000a500ee
:101d5800ff0000004f0000000040ff0012130000c9
:101d6800fc2e00008000000000100000d2010000de
:101d780082000000a8000d00000d00000d000d00fd
:101d8800000c00000c000b00000a0000090007000e
:101d9800000500000300010000feff00fbfff80043
:101da800fff5ff00f1ffed00ffe8ff00e4ffdf00b3
:101db800ffdaff00d4ffce00ffc9ff00c2ffbc005e
:101dc800ffb6ff00afffa800ffa2ff009bff940033
:101dd800ff8dff0086ff7f00ff78ff0072ff6c0019
:101de800ff65ff005fff5a00ff55ff0050ff4b00e3
:101df800ff47ff0044ff4100ff3fff003dff3c005d
:101e0800ff3cff003cff3e00ff40ff0043ff460051
:101e1800ff4bff0050ff5700ff5eff0067ff700099
:101e2800ff7aff0085ff9100ff9eff00acffbb001b
:101e3800ffccff00dcffee00ff00000013002700ce
:101e4800003c000051006700007e00009500ad00d6
:101e580000c50000dd00f600000e0100270140006b
:101e68000159010072018b0001a40100bc01d400da
:101e780001eb010002021900022e02004302570082
:101e8800026b02007d028e00029f0200ae02bc00bf
:101e980002c90200d502df0002e80200f002f600e3
:101ea80002fb0200ff020100030203000103ff001e
:101eb80002fb0200f602f00002e80200df02d50091
:101ec80002c90200bc02ae00029f02008e027d0021
:101ed800026b020057024300022e020019020200a0
:101ee80002eb0100d401bc0001a401008b017200c7
:101ef8000159010040012700010e0100f600dd0034
:101f080000c50000ad009500007e0000670051008c
:101f1800003c00002700130000000000eeffdc007a
:101f2800ffccff00bbffac00ff9eff0091ff8500c8
:101f3800ff7aff0070ff6700ff5eff0057ff500049
:101f4800ff4bff0046ff4300ff40ff003eff3c0001
:101f5800ff3cff003cff3d00ff3fff0041ff440006
:101f6800ff47ff004bff5000ff55ff005aff5f007f
:101f7800ff65ff006cff7200ff78ff007fff86009f
:101f8800ff8dff0094ff9b00ffa2ff00a8ffaf009a
:101f9800ffb6ff00bcffc200ffc9ff00ceffd400a0
:101fa800ffdaff00dfffe400ffe8ff00edfff100cc
:101fb800fff5ff00f8fffb00fffeff000100030034
:101fc8000005000007000900000a00000b000c00d3
:101fd800000c00000d000d00000d00000d00a80011
:101fe80000000000d41200001c0000008000000067
:101ff8005ec60000d2010000800000008cc4000012
:10200800d201000080000000a2bf0000e803000029
:1020180080000000babb0000e80300008000000058
:10202800d2b70000e80300008000000018cc0000d0
:10203800e80300008000000030c80000e80300004a
:10204800800000000c130000040000008000000065
:102058000e4200000404000080000000f01200009e
:102068001c00000080000000204600000200000064
:1020780082000000000400001013000002000000ad
:082088008000000000000000d0
:020000040000fa
:102090000200fa000000eb00000f78002900370072
:1020a0001e007800cf80de0055f90700b2fd200049
:1020b000930c240097f90700020020000338240045
:1020c00052f90700e8f9070002002800f33f240056
:1020d00090f90700c3f90700800078001e0078001f
:1020e00000014000e02024000000410001087800c9
:1020f0001e007800cf80de0041f90700b2fd20000d
:10210000930c240083f90700020020000338240008
:102110003ef90700d6f9070002002800f33f24002b
:102120007cf90700aff90700800078001e007800f6
:102130000001400000412400000041000108780037
:102140001e0fe800001020009e007800808f5000d5
:10215000d3ff340080c22500f1032000809788005f
:10216000919788000080fa00000006000000fa0045
:10217000a2978000b397800080978000919780009d
:102180000200400083804800a0978800b197880033
:10219000a2978000b3978000f0ff2f00f10f20007e
:1021a00002027800030178008001780001007800c5
:1021b00003026200000061008000eb00c000dd004f
:1021c000000020000001be006120b8000001710085
:1021d00081817100a2978800b3978800a097800042
:1021e000b19780004008de000100200000988800c0
:1021f00011988800a2978000b3978000f0ff2f000d
:1022000001002000020278000301780080017800bc
:102210000100780003026200000061008000eb0012
:10222000c000dd00000020000001be006120b800f9
:102230000001710081817100e2978800f3978800a6
:102240000098800011988000000078008000400015
:10225000e0202400008040001000780020988800d2
:10226000009880001198800061004000e0804800e4
:102270000000780080004000e02024000080400042
:1022800010007800309888003198800020988000f5
:10229000808050002098800000804000cf80de00c9
:1022a00040988800519888000433ef0040988000df
:1022b00051988000000078000080fa0000000600bd
:1022c0000000fa00c2978000d397800080978000ba
:1022d000919780000200400083804800c0978800ea
:1022e000d1978800c2978000d3978000f0ff2f001d
:1022f000f10f2000020278000301780080017800cd
:102300000100780003026200000061008000eb0021
:10231000c000dd00000020000001be006120b80008
:102320000001710081817100c2978800d3978800f5
:10233000c0978000d19780004008de000100200097
:102340000098880011988800c2978000d397800079
:10235000f0ff2f0001002000020278000301780046
:102360008001780001007800030262000000610033
:102370008000eb00c000dd00000020000001be0076
:102380006120b8000001710081817100e29788002e
:10239000f397880000988000119880000000780072
:1023a00080004000004124000080400010007800c0
:1023b00020988800009880001198800061004000fb
:1023c000e0804800000078008000400000412400c8
:1023d000008040001000780030988800319880001c
:1023e000209880008080500020988000008040006d
:1023f000cf80de0040988800519888000433ef00b9
:102400004098800051988000000078000080fa0019
:10241000000006000000fa00a4382c0003f02f0092
:10242000221d21001108200020612400d9fa070094
:102430000080fa000000060000318a00000006005b
:00000001FF
